:100000000C9435000C945D000C945D000C945D0024
:100010000C945D000C945D000C945D000C945D00EC
:100020000C945D000C945D000C945D000C945D00DC
:100030000C945D000C945D000C945D000C945D00CC
:100040000C94EF010C945D000C945F020C94390247
:100050000C945D000C945D000C945D000C945D00AC
:100060000C945D000C945D00F10311241FBECFEFD2
:10007000D8E0DEBFCDBF11E0A0E0B1E0E0E9F8E0FC
:1000800002C005900D92AC36B107D9F722E0ACE67C
:10009000B1E001C01D92A431B207E1F710E0C5E361
:1000A000D0E004C02197FE010E944004C433D10770
:1000B000C9F70E9491020C9446040C940000AF9280
:1000C000BF92CF92DF92EF92FF920F931F93CF9345
:1000D000DF936C017B018B01040F151FEB015E01A7
:1000E000AE18BF08C017D10759F06991D601ED913C
:1000F000FC910190F081E02DC6010995892B79F7DB
:10010000C501DF91CF911F910F91FF90EF90DF908C
:10011000CF90BF90AF900895FC01538D448D252F53
:1001200030E0842F90E0821B930B541710F0CF9691
:10013000089501970895FC01918D828D981761F0C3
:10014000A28DAE0FBF2FB11D5D968C91928D9F5FDA
:100150009F73928F90E008958FEF9FEF0895FC01B9
:10016000918D828D981731F0828DE80FF11D858D6C
:1001700090E008958FEF9FEF0895FC01918D228DFF
:10018000892F90E0805C9F4F821B91098F73992784
:10019000089587E791E00E94BD0021E0892B09F4D2
:1001A00020E0822F089580E090E0892B29F00E94C2
:1001B000C90081110C9400000895FC01A48DA80FC2
:1001C000B92FB11DA35ABF4F2C91848D90E0019699
:1001D0008F739927848FA689B7892C93A089B189B9
:1001E0008C91837080648C93938D848D981306C05A
:1001F0000288F389E02D80818F7D80830895EF92BE
:10020000FF920F931F93CF93DF93EC0181E0888FD0
:100210009B8D8C8D98131AC0E889F989808185FFA0
:1002200015C09FB7F894EE89FF896083E889F98942
:1002300080818370806480839FBF81E090E0DF9144
:10024000CF911F910F91FF90EF900895F62E0B8D97
:1002500010E00F5F1F4F0F731127E02E8C8D8E1152
:100260000CC00FB607FCFACFE889F989808185FFB9
:10027000F5CFCE010E94DD00F1CFEB8DEC0FFD2F0D
:10028000F11DE35AFF4FF0829FB7F8940B8FEA8974
:10029000FB8980818062CFCFCF93DF93EC01888D83
:1002A0008823B9F0AA89BB89E889F9898C9185FDF1
:1002B00003C0808186FD0DC00FB607FCF7CF8C917F
:1002C00085FFF2CF808185FFEDCFCE010E94DD005A
:1002D000E9CFDF91CF910895FC0101900020E9F76B
:1002E0003197AF01481B590BBC0187E791E00C9493
:1002F0005F008F929F92AF92BF920F931F93CF9305
:10030000DF93CDB7DEB7A1970FB6F894DEBF0FBE6F
:10031000CDBF19A2423008F44AE08E010F5D1F4F95
:10032000842E912CB12CA12CA50194010E941E04B5
:10033000E62FB901CA01EA30F4F4E05DD801EE938A
:100340008D01232B242B252B79F790E080E010974B
:1003500019F0CD010E946C01A1960FB6F894DEBF92
:100360000FBECDBFDF91CF911F910F91BF90AF9086
:100370009F908F900895E95CE1CFCF92DF92EF924A
:10038000FF92CF93DF936C01990FEE08FF08F7FE01
:100390001FC06DE287E791E00E94FF00EC01662735
:1003A0007727CB016C197D098E099F094AE00E94CD
:1003B0007901C80FD91F82E191E00E946C018C0F76
:1003C0009D1FDF91CF91FF90EF90DF90CF90089528
:1003D0004AE0C701B6010E947901EC01ECCF1F92FF
:1003E0000F920FB60F9211242F933F938F939F93E9
:1003F000AF93BF938091730190917401A0917501A7
:10040000B09176013091720123E0230F2D3758F51A
:100410000196A11DB11D20937201809373019093E9
:100420007401A0937501B093760180916E01909153
:100430006F01A0917001B09171010196A11DB11DD4
:1004400080936E0190936F01A0937001B09371013E
:10045000BF91AF919F918F913F912F910F900FBEC0
:100460000F901F90189526E8230F0296A11DB11D2D
:10047000D2CF1F920F920FB60F9211242F933F935A
:100480004F935F936F937F938F939F93AF93BF939C
:10049000EF93FF9387E791E00E94DD00FF91EF91DA
:1004A000BF91AF919F918F917F916F915F914F918C
:1004B0003F912F910F900FBE0F901F9018951F9294
:1004C0000F920FB60F9211242F938F939F93EF9358
:1004D000FF93E0918701F09188018081E0918D0187
:1004E000F0918E0182FD1BC09081809190018F5F01
:1004F0008F7320919101821741F0E0919001F0E01B
:10050000E958FE4F958F80939001FF91EF919F9155
:100510008F912F910F900FBE0F901F901895808193
:10052000F4CFCF93DF93CDB7DEB760970FB6F894D3
:10053000DEBF0FBECDBF789484B5826084BD84B524
:10054000816084BD85B5826085BD85B5816085BDCE
:1005500080916E00816080936E0010928100809186
:10056000810082608093810080918100816080930E
:100570008100809180008160809380008091B10033
:1005800084608093B1008091B00081608093B0005E
:1005900080917A00846080937A0080917A008260F2
:1005A00080937A0080917A00816080937A008091B4
:1005B0007A00806880937A001092C100E0918701F0
:1005C000F091880182E08083E0918301F0918401C1
:1005D0001082E0918501F09186018FEC808310926A
:1005E0008F01E0918B01F0918C0186E08083E09196
:1005F0008901F0918A01808180618083E091890185
:10060000F0918A01808188608083E0918901F09176
:100610008A01808180688083E0918901F0918A015C
:1006200080818F7D808357985F9A84B1876084B979
:10063000289A85B1897F85B980E0E82E80E0F82E80
:10064000CC24C394D12C80916C0190916D010E94B7
:10065000BD014F9976C001EF12ED4F996EC085E153
:1006600091E00E946C0180916C0190916D010E945B
:10067000BD0180916C0190916D01892B09F06DC0D5
:1006800019861A861B861C8689859A85AB85BC854A
:100690008136934EA641B10560F489859A85AB8574
:1006A000BC850196A11DB11D89879A87AB87BC8740
:1006B000EBCF2898299A1D861E861F86188A8D855D
:1006C0009E85AF85B889813A9542A642B10560F40E
:1006D0008D859E85AF85B8890196A11DB11D8D8739
:1006E0009E87AF87B88BEBCF29982A9A85E291E055
:1006F0000E946C0182E191E00E946C01D0926D0138
:10070000C0926C018CE491E00E946C0165B170E0D4
:1007100090E080E042E00E94790182E191E00E9455
:100720006C018EE591E00E946C0180916C019091CA
:100730006D010E94BD014F9BFECF0150110909F0D0
:100740008CCFE114F10409F47ECF0E94C900882304
:1007500009F479CF0E94000076CF19821A821B8299
:100760001C8289819A81AB81BC818136934EA641DE
:10077000B10560F489819A81AB81BC810196A11D8C
:10078000B11D89839A83AB83BC83EBCF299A1D82E9
:100790001E821F8218868D819E81AF81B88581342B
:1007A0009244AF40B10560F48D819E81AF81B885E0
:1007B0000196A11DB11D8D839E83AF83B887EBCFBA
:1007C00085B1897F85B9289A89E391E00E946C01FF
:1007D00082E191E00E946C0110926D0110926C0117
:1007E00091CFE7E7F1E01382128288EE93E0A0E078
:1007F000B0E084839583A683B78384E091E09183FE
:10080000808385EC90E09587848784EC90E09787DF
:10081000868780EC90E0918B808B81EC90E0938BCD
:10082000828B82EC90E0958B848B86EC90E0978BAA
:10083000868B118E128E138E148E0895A1E21A2EBD
:10084000AA1BBB1BFD010DC0AA1FBB1FEE1FFF1F74
:10085000A217B307E407F50720F0A21BB30BE40BC4
:10086000F50B661F771F881F991F1A9469F760950B
:100870007095809590959B01AC01BD01CF010895C5
:10088000EE0FFF1F0590F491E02D0994F894FFCF2F
:1008900000000000FF005F008C004C01BD009B00C9
:1008A000AF000D0A0050727A6564207A6D69616E3E
:1008B000C4853A20005A6D69616E61206E612063C3
:1008C0007A6572776F6E652E005A6D69616E612070
:1008D0006E61207A69656C6F6E652E00466F72637B
:1008E00065204C45445F53544154453A2000506FB5
:0C08F000207A6D69616E69653A20000095
:00000001FF
